:100000000C9484030C94AC030C94AC030C94AC03DC
:100010000C94AC030C94AC030C94AC030C94AC03A4
:100020000C94AC030C94AC030C942E080C9434097F
:100030000C94AC030C94AC030C94AC030C94AC0384
:100040000C94AC030C94AC030C94AC030C94AC0374
:100050000C94AC030C94AC030C94AC030C94770597
:100060000C94AC030C94AC030C94AC030C94AC0354
:100070000C94AC030C94AC030C94AC030C94AC0344
:100080000C94AC030C94AC030C94AC030C94AC0334
:100090000C94AC030C94AC030C94AC030C94AC0324
:1000A0000C94AC030C94AC030C94AC030102040854
:1000B0001020408000000000003E5B4F5B3E3E6B26
:1000C0004F6B3E1C3E7C3E1C183C7E3C181C577DF2
:1000D000571C1C5E7F5E1C00183C1800FFE7C3E73E
:1000E000FF0018241800FFE7DBE7FF30483A060E50
:1000F0002629792926407F050507407F05253F5A97
:100100003CE73C5A7F3E1C1C08081C1C3E7F142206
:100110007F22145F5F005F5F06097F017F006689B1
:10012000956A606060606094A2FFA29408047E04F7
:100130000810207E201008082A1C08081C2A08081D
:100140001E101010100C1E0C1E0C30383E383006DD
:100150000E3E0E06000000000000005F00000007D9
:10016000000700147F147F14242A7F2A1223130807
:10017000646236495620500008070300001C2241E3
:10018000000041221C002A1C7F1C2A08083E080887
:100190000080703000080808080800006060002037
:1001A000100804023E5149453E00427F400072491A
:1001B0004949462141494D331814127F10274545BE
:1001C00045393C4A494931412111090736494949D4
:1001D00036464949291E0000140000004034000042
:1001E00000081422411414141414004122140802AB
:1001F000015909063E415D594E7C1211127C7F491E
:100200004949363E414141227F4141413E7F494972
:1002100049417F090909013E414151737F0808089E
:100220007F00417F41002040413F017F081422416F
:100230007F404040407F021C027F7F0408107F3EC9
:100240004141413E7F090909063E4151215E7F0936
:10025000192946264949493203017F01033F40409D
:10026000403F1F2040201F3F4038403F6314081488
:100270006303047804036159494D43007F414141C0
:100280000204081020004141417F040201020440A1
:1002900040404040000307080020545478407F2825
:1002A0004444383844444428384444287F3854541B
:1002B000541800087E090218A4A49C787F0804043E
:1002C0007800447D40002040403D007F10284400DD
:1002D00000417F40007C047804787C08040478386E
:1002E00044444438FC1824241818242418FC7C089E
:1002F000040408485454542404043F44243C40401B
:10030000207C1C2040201C3C4030403C44281028CD
:10031000444C9090907C4464544C44000836410016
:100320000000770000004136080002010204023C90
:100330002623263C1EA1A161123A4040207A38545F
:1003400054555921555579412154547841215554DA
:10035000784020545579400C1E527212395555552B
:1003600059395454545939555454580000457C4116
:100370000002457D420001457C40F0292429F0F02F
:10038000282528F07C545545002054547C547C0A80
:10039000097F4932494949323248484832324A484D
:1003A00048303A4141217A3A42402078009DA0A04D
:1003B0007D39444444393D4040403D3C24FF2424A1
:1003C000487E4943662B2FFC2F2BFF0929F620C0BE
:1003D000887E090320545479410000447D4130480F
:1003E000484A32384040227A007A0A0A727D0D1952
:1003F000317D2629292F28262929292630484D40B4
:1004000020380808080808080808382F10C8ACBAAF
:100410002F102834FA00007B000008142A1422222E
:10042000142A14089500220095AA005500AAAA557E
:10043000AA55AA000000FF00101010FF00141414A9
:10044000FF001010FF00FF1010F010F0141414FC47
:10045000001414F700FF0000FF00FF1414F404FC64
:10046000141417101F10101F101F1414141F001045
:100470001010F0000000001F101010101F101010BE
:1004800010F010000000FF101010101010101010CD
:10049000FF10000000FF140000FF00FF00001F100D
:1004A000170000FC04F414141710171414F404F4C7
:1004B0000000FF00F714141414141414F700F714B8
:1004C0001414171410101F101F141414F414101007
:1004D000F010F000001F101F0000001F14000000AB
:1004E000FC140000F010F01010FF10FF141414FFA3
:1004F000141010101F00000000F010FFFFFFFFFF9E
:10050000F0F0F0F0F0FFFFFF0000000000FFFF0F31
:100510000F0F0F0F38444438447C2A2A3E147E02C1
:10052000020606027E027E02635549416338444456
:100530003C04407E201E2006027E020299A5E7A50B
:10054000991C2A492A1C4C7201724C304A4D4D307C
:100550003048784830BC625A463D3E494949007EA1
:100560000101017E2A2A2A2A2A44445F4444405138
:100570004A444040444A51400000FF0103E080FFEC
:10058000000008086B6B083612362436060F090F78
:1005900006000018180000001010003040FF010194
:1005A000001F01011E00191D1712003C3C3C3C00BD
:1005B00000000000F0F89C8E8783878E9CF8F00086
:1005C00000FEFF0303030303070EFCF80000FEFF19
:1005D0000303030303070EFCF80000FFFF00000005
:1005E00000000000FFFF0000FEFF8383838383C7BA
:1005F000EE7C380000F8FC0E07030303070EFCF83E
:1006000000003F7FE0C08080C0E07F3FFFFF01012E
:100610000101010101FFFF0000FFFF0C0C0C0C1C8D
:100620003E77E3C100007FFFC0C0C0C0C0E0703FA4
:100630001F00001F3F70E0C0C0C0E0703F1F0000FF
:100640007FFFC1C1C1C1C1E3773E1C00001F3F70E5
:10065000E0C0C0C0E0703F1F000000000001FFFFCD
:1006600001000000D5F08D14A1C881CFD9F1AF20D1
:1006700000FE013D25253D0101C1013D25253D012E
:10068000FE7F809CBCB0B0B2B2B3B0B0B0BC9C80B6
:100690007F080B00020202010009040000010202AF
:1006A00000000524001001052401010104240206B4
:1006B000052406000107058103100040090401001C
:1006C000020A00000007050202400000070583023D
:1006D0004000000403090412010002EF020140413E
:1006E00023368000010102030141726475696E6F57
:1006F000204C4C430041726475696E6F204C656FED
:100700006E6172646F00800D11241FBECFEFDAE0BE
:10071000DEBFCDBF11E0A0E0B1E0EAE2FCE102C043
:1007200005900D92AA36B107D9F725E0AAE6B1E007
:1007300001C01D92A83FB207E1F713E0C4E8D3E07F
:1007400004C02197FE010E94080EC338D107C9F7E3
:100750000E94640B0C94130E0C940000CF92DF9255
:10076000EF92FF920F931F93CF93DF936C017A0167
:100770008B01C0E0D0E0CE15DF0589F0D8016D9186
:100780008D01D601ED91FC910190F081E02DC60123
:100790000995892B11F47E0102C02196ECCFC70187
:1007A000DF91CF911F910F91FF90EF90DF90CF904D
:1007B00008953FB7F89480916F0190917001A091D6
:1007C0007101B091720126B5A89B05C02F3F19F0A9
:1007D0000196A11DB11D3FBFBA2FA92F982F8827C1
:1007E000820F911DA11DB11DBC01CD0142E0660F1C
:1007F000771F881F991F4A95D1F708952D9A08955C
:100800008FB12CB193B130E020953095207433270F
:10081000A90123E0559547952A95E1F7292F30E066
:100820002095309520713327359527953595279557
:10083000242B8095807F822B08958EBD00000DB4FF
:1008400007FEFDCF08952F923F924F925F926F92D5
:100850007F928F929F92AF92BF92CF92DF92EF9250
:10086000FF920F931F93CF93DF93CDB7DEB72797F8
:100870000FB6F894DEBF0FBECDBF9B838A836A306C
:10088000A1F4DC015C962C915C9758968D919C911B
:100890005997B8E02B9F800D911D1124EA81FB81AF
:1008A000918F808F178A168AC1C06D3009F4BEC03F
:1008B000AA81BB815C964C915C975B966C905B9730
:1008C0006E825A967C905A977F825896CD90DC9093
:1008D000599756968D919C91579780389105C4F001
:1008E000AA81BB815C962C915C97422F50E0569672
:1008F0008D919C915797B6E02B9F800D911D1124EF
:10090000EA81FB81978B868B258D21117AC08EC061
:10091000F0E4CF16D10424F79C0155E0459F200D4B
:10092000311D112412161306DCF6242E312C9601EB
:10093000A8E04A9F200D311D11241216130684F6DB
:10094000B5E06B9FB0011124FB01EC54FF4F2F0168
:1009500050E0F201B490553009F4B12C7601B8E0C2
:100960009B2EB0FC02C08E8001C08F8081100BC016
:100970006E807F80671007C0B6949A94E20CF31CD7
:100980009110EFCF33C09C012983622F681B64173D
:1009900098F7B701E62FEE19E41728F5203831054E
:1009A000F8F460347105E0F48B01ECEAF0E0A0E1CA
:1009B0006A2E7980609ED001A0781124A70D07705F
:1009C000E00FF11DA490BD83AC83A958BE4F8820D1
:1009D00019F0EC91AE2A03C0A094EC91AE22AC9237
:1009E0006F5F7F4FD7CF2F5F3F4FCECF5F5F820DBF
:1009F000931D92012F5F3F4F2901563009F0A9CF77
:100A00006FCF6AEF64039001659F300D1124205869
:100A10003F4F2817390754F48A819B81DC01ED91FF
:100A2000FC910190F081E02D6AE0099581E090E071
:100A300027960FB6F894DEBF0FBECDBFDF91CF91E2
:100A40001F910F91FF90EF90DF90CF90BF90AF90EC
:100A50009F908F907F906F905F904F903F902F90DE
:100A600008950895089580E090E008950E940E0E84
:100A70008F929F92AF92BF92CF92DF92EF92FF92AE
:100A80006B017C010E94D9034B015C01C114D104AC
:100A9000E104F104F1F00E94D903DC01CB018819D3
:100AA0009909AA09BB09883E9340A105B10570F3D5
:100AB00021E0C21AD108E108F10888EE880E83E02F
:100AC000981EA11CB11CC114D104E104F10419F752
:100AD000DDCFFF90EF90DF90CF90BF90AF909F90D1
:100AE0008F900895BC0180E090E00C9438051F922F
:100AF0000F920FB60F9211242F933F938F939F93D2
:100B0000AF93BF9380916B0190916C01A0916D01A7
:100B1000B0916E0130916A0123E0230F2D3720F44C
:100B20000196A11DB11D05C026E8230F0296A11D47
:100B3000B11D20936A0180936B0190936C01A09387
:100B40006D01B0936E0180916F0190917001A09141
:100B50007101B09172010196A11DB11D80936F01C9
:100B600090937001A0937101B0937201BF91AF9106
:100B70009F918F913F912F910F900FBE0F901F90DB
:100B80001895FC0180917601811103C08FEF9FEFD2
:100B900008959FB7F89482E08093E9002091F200D5
:100BA00030E01216130614F421E030E0211531056F
:100BB00059F0289884E6809375018091F100808334
:100BC0008091F200882319F09FBFC90108958BE638
:100BD0008093E800F9CF2FB7F89483E08093E90081
:100BE0009091E800892F807295FF04C09091F200E7
:100BF00080E4891B2FBF0895CF93DF931F92CDB759
:100C0000DEB76983DC01ED91FC910280F381E02D78
:100C100041E050E0BE016F5F7F4F09950F90DF917B
:100C2000CF91089583E08093E9008091F2008823BA
:100C300019F08AE38093E80008950E94EB0590E0A4
:100C40000895CF93DF931F92CDB7DEB7FC01848563
:100C5000958597FD05C02FEF3FEF358724870BC0A3
:100C6000CE0101960E94C105019719F4898190E097
:100C700002C08FEF9FEF0F90DF91CF9108950F93F8
:100C80001F93CF93DF931F92CDB7DEB78C01FC018A
:100C90008485958597FF0EC0CE0101960E94C105FF
:100CA000019719F4298130E002C02FEF3FEFF801DE
:100CB00035872487F801848595850F90DF91CF9142
:100CC0001F910F910895FC018485958597FD0BC0B8
:100CD0009FB7F89482E08093E9008091F2009FBF73
:100CE00090E0019608959FB7F89482E08093E90020
:100CF0008091F2009FBF90E008958F929F92AF92F3
:100D0000BF92CF92DF92EF92FF920F931F93CF93F8
:100D1000DF935C016B017A0180910701882309F45C
:100D20005BC080917601882309F456C080917401DC
:100D300080FF05C08091E00082608093E000E701C1
:100D400010E00AEF83E0882E9AE3992E2097D9F1DC
:100D50000E94EB0581110AC0015009F43DC061E019
:100D600070E080E090E00E943805F0CF282F30E05E
:100D7000C217D3070CF48C2F4FB7F8948092E90078
:100D80009091E80095FF1DC0282F30E0C21BD30BC7
:100D9000F601982F915020F081918093F100FACFC5
:100DA000C20ED31E112319F09092E80009C0809161
:100DB000E80085FD06C09092E80011E0209709F058
:100DC00010E04FBFC3CF1111C3CF5D9884E680936D
:100DD00095051E141F0444F081E090E0F501938313
:100DE000828380E090E001C0C701DF91CF911F9125
:100DF0000F91FF90EF90DF90CF90BF90AF909F90BA
:100E00008F900895809177018EBDE8E7F1E08191A0
:100E10000DB407FEFDCF8EBD85E0E737F807B9F7C3
:100E20000DB407FEFDCF089580E0E7E7F1E0811102
:100E30008FEF002481938193819381930394D1F761
:100E400008952F923F924F925F926F927F928F926E
:100E50009F92AF92BF92CF92DF92EF92FF920F9349
:100E60001F93CF93DF9300D000D000D0CDB7DEB773
:100E70005A01822E912C9C01280D391D37FDAFC0DF
:100E8000803891050CF0ABC09B01205F3F4F2035AF
:100E9000310508F0A4C0AB0177FF04C044275527F3
:100EA000461B570B477055279B0177FF02C0295FF0
:100EB0003F4FE3E035952795EA95E1F777FF08C0C6
:100EC0002150310968E070E0DB01A41BB50BAD01D6
:100ED00039017694762C662477946794680E791E8F
:100EE000E12CF12C00E010E02301B0E84B0E511C86
:100EF00068E070E0DB01A41BB50BBA83A9832F3F28
:100F0000BFEF3B077CF42F5F3F4F00581F4FE80CAB
:100F1000F91C0115E1E01E0709F461C02830310514
:100F200071F75DC0B201600F711FDB01A958BE4FA0
:100F3000BC83AB83D801A60DB71DA958BE4F6C0169
:100F400060E070E068157905F4F6E0E8CE16D104AB
:100F5000D1F2D7FC34C02F3FFFEF3F0709F43BC06D
:100F6000FB01EE0DFF1DEA0DFB1DE491042E01C0F7
:100F7000EE0F0A94EAF73C90E329EC9341155105F2
:100F8000F1F027303105D9F0FB01EE0DFF1DEA0D20
:100F9000FB1DE4912E2E312CF101098002C0F59544
:100FA000E7950A94E2F7FE83ED83EB81FC813080C4
:100FB000ED81FE81E3291F01EB81FC8120826F5FBF
:100FC0007F4FEB81FC813196FC83EB83FFEFCF1ADF
:100FD000DF0A1196B7CF41155105B1F6F0CF26962D
:100FE0000FB6F894DEBF0FBECDBFDF91CF911F913A
:100FF0000F91FF90EF90DF90CF90BF90AF909F90B8
:101000008F907F906F905F904F903F902F900895BA
:10101000009769F0FC0101900020E9F73197AF01DA
:10102000481B590BBC0187E795E00C94AE0380E0A8
:1010300090E0089580919A0581110DC082E080931F
:10104000960584E080939705109299051092980573
:1010500081E080939A0586E995E008951F920F92AA
:101060000FB60F9211248F939F938091E10090917E
:10107000E100937F9093E10083FF0FC01092E9009D
:1010800091E09093EB001092EC0092E39093ED00CE
:101090001092760198E09093F00082FF20C093E0D8
:1010A0009093E9009091F200992319F09AE39093BC
:1010B000E80090919505992339F09091950591500C
:1010C00090939505992389F190917501992339F0B1
:1010D00090917501915090937501992341F184FF8E
:1010E00010C08091E2008E7E81608093E20080914A
:1010F000E1008F7E8093E100809174018E7E80619B
:1011000011C080FF16C08091E2008E7E80618093C6
:10111000E2008091E1008E7E8093E1008091740175
:101120008E7E81608093740104C05D9ACDCF289A31
:10113000D6CF9F918F910F900FBE0F901F90189553
:101140004091F6055091F7052091F4053091F50591
:1011500042175307B4F49091E8009570E1F3909131
:10116000E80092FD19C08093F1008091F6059091FE
:10117000F70501968F739927892B19F48EEF8093C9
:10118000E8008091F6059091F70501969093F70598
:101190008093F60581E0089580E00895DF92EF9254
:1011A000FF920F931F93CF93DF93D82E8A017B0179
:1011B000E40EF51EEB01CE15DF0571F0D7FE03C07E
:1011C000FE01849101C088810E94A00821968111AE
:1011D000F2CF8FEF9FEF01C0C801DF91CF911F9138
:1011E0000F91FF90EF90DF900895615030F02091C3
:1011F000F100FC0120830196F8CF289884E68093C3
:10120000750108950F931F93CF93DF931F92CDB76E
:10121000DEB782E0898342E450E061E976E080E86D
:101220000E94CE080E941A08DC0112960D911C91B2
:1012300013970115110569F0D801ED91FC91028019
:10124000F381E02DBE016F5F7F4FC801099597FFC5
:1012500007C089810F90DF91CF911F910F91089561
:10126000F80100851185E5CF1F920F920FB60F92FE
:101270001124CF92DF92EF92FF920F931F932F933F
:101280003F934F935F936F937F938F939F93AF930E
:10129000BF93EF93FF93CF93DF93CDB7DEB76C97F8
:1012A000DEBFCDBF1092E9008091E80083FFEDC161
:1012B00068E0CE0145960E94F50882EF8093E80031
:1012C0008D8987FF05C09091E80090FFFCCF03C097
:1012D0009EEF9093E800982F907609F0C6C09E8903
:1012E0002F89188D91110CC0803829F48091F30555
:1012F0008093F10002C01092F1001092F10048C1F9
:10130000422F50E0512B913051F4811141C14130B5
:10131000510509F03DC18091F3058D7F0BC09330DD
:1013200061F4811135C14130510509F031C180911D
:10133000F30582608093F3052BC1953041F48091D1
:10134000E80080FFFCCF20682093E30021C19630A5
:1013500009F05FC0EB8CFC8C1092E9001092F7054D
:101360001092F605123091F51092F5051092F405E1
:101370000E94020999E0BE016F5F7F4FDB01E92FF8
:101380001D92EA95E9F799831A8391E09E8390EA8A
:1013900098879AEF99872091F6053091F705275F96
:1013A0003F4F3C832B838D831092E9001092F70509
:1013B0001092F605F092F505E092F40549E050E050
:1013C00080E00E94CE080E940209E2C0F092F5057A
:1013D000E092F4050E941A08DC011296ED90FC9050
:1013E0001397E114F10409F4C0C0D701ED91FC9109
:1013F0000480F581E02DBE016B5E7F4FC70109952A
:10140000009719F00CF0C4C0C7C0F701E084F18464
:10141000E8CF973009F4C0C0983021F481E0809380
:10142000F100B6C0993009F0B3C0837009F0B4C0C0
:10143000E3E3F1E081E021E036E39081992361F07C
:101440008093E9002093EB0091919093EC0030930E
:10145000ED008F5F873089F78EE78093EA00109266
:10146000EA008F898093760193C08B8D9C8D1092BA
:10147000E9001092F7051092F6059093F505809318
:10148000F405898D811156C08E899D89913A59F450
:10149000813209F081C047E050E060E071E080E017
:1014A0000E94CE0875C0913209F076C0833289F46B
:1014B000888D90E0982F88272F89822BA0E0B0E0BC
:1014C0008093080190930901A0930A01B0930B0146
:1014D0005FC0803269F48091E80082FFFCCF67E052
:1014E00080E091E00E94F5088BEF8093E80006C051
:1014F000823209F04DC08F89809307018091F205F7
:10150000882319F0EEEFFAE002C0E0E0F8E0809105
:10151000000190910101A0910201B0910301803B73
:101520009440A105B10509F07BC08091070180FFBF
:1015300093C076C00E941A08DC0112960D911C918E
:1015400013970115110541F1D801ED91FC9101901E
:10155000F081E02DBE016B5E7F4FC80109958111BE
:1015600017C0F80100851185ECCF113009F44EC089
:10157000133091F48F89882309F445C0823081F4B7
:1015800040E860E185EF96E00E94B50D882321F0E8
:101590008EEF8093E80079C081E28093EB0075C004
:1015A000813029F440E86BE089EE96E0EDCF83309E
:1015B00099F70E941A08DC011296ED90FC9013979F
:1015C0008E010F5F1F4F6801E114F10479F0D7011C
:1015D000ED91FC910680F781E02DB801C7010995D6
:1015E000080F111DF701E084F184EECFD8011C92A1
:1015F000F60101900020E9F73197BF016C197D09D0
:1016000040E0C601C1CF63ED76E002C067ED76E051
:101610006115710509F2FB01449150E080E840CF6B
:101620000FB6F894A895809160008861809360005F
:10163000109260000FBEA895EE3F2AE0F20739F045
:101640008091FE0A9091FF0A91838083A1CF10922E
:10165000FF0A1092FE0A9CCFEE3F8AE0F80731F0B5
:10166000808191819093FF0A8093FE0A87E797E734
:10167000918380839BE088E10FB6F894A8958093CE
:1016800060000FBE9093600083CF6C960FB6F89405
:10169000DEBF0FBECDBFDF91CF91FF91EF91BF9124
:1016A000AF919F918F917F916F915F914F913F91FA
:1016B0002F911F910F91FF90EF90DF90CF900F909F
:1016C0000FBE0F901F901895789484B5826084BDEA
:1016D00084B5816084BD85B5826085BD85B5816036
:1016E00085BD80916E00816080936E0010928100B4
:1016F000809181008260809381008091810081606F
:10170000809381008091800081608093800080912F
:10171000910082608093910080919100816080931C
:101720009100809190008160809390008091C10031
:1017300084608093C1008091C10082608093C10069
:101740008091C10081608093C1008091C30081605D
:101750008093C3008091C00082608093C00080911C
:10176000C20081608093C20080917A00846080937F
:101770007A0080917A00826080937A0080917A006A
:10178000816080937A0080917A00806880937A00EB
:10179000109276011092F305109274018091D70097
:1017A00081608093D70080EA8093D80089B58061FA
:1017B00089BD89B5826089BD09B400FEFDCF61E0B5
:1017C00070E080E090E00E9438058091D8008F7C26
:1017D00080618093D8008091E000807F8093E0005A
:1017E0008091E1008E7E8093E1008DE08093E200A5
:1017F000559A209AEEEFFFE7859194918B3F9C4D8F
:1018000019F481E08093F20581EC80937C0085B12E
:10181000806F85B9249884B1866E84B95E9A5F988A
:101820008AB1806D8AB9769A6E9881B3806F81BBD8
:10183000899880B38D7080BB80E58CBD81E08DBDC3
:1018400085E090E00E9472055F9A85E090E00E943A
:1018500072055E985C98C4E6D6E01C2F135FFE010B
:1018600084910E941D0421961C13F9CF5C9A81E893
:101870008093640081E080936500C0E0D4E080E064
:101880000E941D042197D9F70E94000487FF27C0FA
:101890005C9885EA0E941D045C9A2E982F982D98DA
:1018A0008091640080628093640083B7817F83BFEE
:1018B00083B7816083BF889583B78E7F83BFF5CF61
:1018C0002D980E9400048478843871F00E940004EE
:1018D0008471843131F188EC90E00E9472050E949D
:1018E000000482FDEDCF3AC00E94FE0388EC90E038
:1018F0000E9472052F9882E090E00E94F20D8F3FC7
:1019000029F06FEF82E090E00E94FA0D84EF91E001
:101910000E9472052F9A0E94000484788438D9F3BB
:10192000D5CF0E94FE0388EC90E00E9472052E98AD
:1019300082E090E00E94F20D882329F060E082E0CE
:1019400090E00E94FA0D84EF91E00E9472052E9AB9
:101950000E94000484718431D9F3BDCF0E94FE033C
:1019600082E090E00E94F20D882331F03E9A3F9A87
:1019700081E08093730104C0109273013E983F98F8
:101980002E98CEEEDFEF0E94000486FF04C02E9A50
:101990002F9A2D9A38C0CC3F2FEFD20719F42E9AE8
:1019A0002F9805C0C831D10511F42F9A2D980E94A7
:1019B000140728E544EB55E0BE0184E190E00E9465
:1019C00021070E9402078BE190E00E947205C03F50
:1019D0008FEFD80721F48AEF90E00E9472052196DC
:1019E000C931D10581F68CEB92E00E9472050E940C
:1019F000FE03E0917B05F0917C050190F081E02DE4
:101A00008BE795E0099582E390E00E9472050E94C1
:101A100000048111F8CF00E010E0CAE0D0E00E949D
:101A20001407D0938E05C0938D05D0939005C09375
:101A30008F050E94000483FF03C089E391E009C081
:101A40000E94000482FF03C08AE491E002C08BE59B
:101A500091E00E94080820E141E756E06EE170E065
:101A60008AE090E00E9421070E94020701151105FB
:101A7000B1F20E940000D3CF0F931F93CF93DF9357
:101A80008C0181E090E00E94F20D80FF31C08AE07D
:101A900090E00E94F20D9FEF980F9E3F48F522E3E1
:101AA00030E0D80157963C932E93569728E330E0C8
:101AB00059963C932E935897CBE0D0E0D801ED9106
:101AC000FC910190F081E02D682FC8010995CE01AD
:101AD0000E94F20D2196C131D10581F70E940207C3
:101AE00088EE93E0DF91CF911F910F910C947205D6
:101AF000DF91CF911F910F91089504970C943C0DA5
:101B0000E2EAF5E01382128288EE93E0A0E0B0E012
:101B100084839583A683B78380E191E0918380835A
:101B20008FEF9FEF95878487E7E7F5E013821282B6
:101B30001186128620E1238790878783108A118A75
:101B4000128A138A148A82E291E09183808380E36F
:101B500091E095838483178A168A118E108E81E016
:101B6000828F138E848F158E0895CF92DF92EF921D
:101B7000FF920F931F93CF93DF931F92CDB7DEB7E2
:101B8000182F062FE42E862F880F8E5F99830E94D0
:101B9000A00883E00E94A008F12EC12E9981D92EC1
:101BA0008C2D8F19801798F4F601E7FE02C08491FE
:101BB00001C080810E94A008182F80E00E94A00828
:101BC0008123FFEFCF1ADF0A8111EACF01C081E044
:101BD0000F90DF91CF911F910F91FF90EF90DF90C9
:101BE000CF900895F999FECF92BD81BDF89A9927BB
:101BF00080B50895262FF999FECF1FBA92BD81BDF9
:101C000020BD0FB6F894FA9AF99A0FBE019608957E
:101C1000EE0FFF1F0590F491E02D099481E090E014
:0A1C2000F8940C94130EF894FFCF13
:101C2A0000E1000000000000FFFFFFFF00000000CD
:101C3A00FC057D061D061206630621063F06000006
:101C4A0000002304AE03330532053C0DFCFF0000FF
:101C5A007D0D00C1808100000048656C6C6F2C20EE
:101C6A004120627574746F6E210048656C6C6F2C2C
:101C7A00204220627574746F6E210048656C6C6F27
:0A1C8A002C20576F726C64210000DB
:2070000055C000006EC000006CC000006AC0000068C0000066C0000064C0000062C0000043
:2070200060C000005EC00000F2C400005AC0000058C0000056C0000054C0000052C00000EE
:2070400050C0000078C000004CC000004AC0000048C0000046C0000044C0000042C00000BE
:2070600040C000003EC000003CC000003AC0000038C0000036C0000034C0000032C0000048
:2070800030C000002EC000002CC000002AC0000028C0000026C0000024C0000022C00000A8
:2070A00020C000001EC000001CC0000011241FBECFEFDAE0DEBFCDBF11E0A0E0B1E0E2E3BC
:2070C000FFE702C005900D92A83AB107D9F711E0A8EAB1E001C01D92AE3BB107E1F78FD30B
:2070E00026C78ECFF89410926F0010928100109285001092840081E085BF15BE47985D9AEB
:20710000289A0C94000008952091B2013091B3012F5F3F4F3093B3012093B201932F37FFA6
:2071200003C08EEF831B982F990F921710F447980895479A08951F920F920FB60F9211246E
:207140002F938F939F93EF93FF9310928500109284008091A8019091A901009741F00197D3
:207160009093A9018093A801892B09F45D9A8091AA019091AB01009741F001979093AB0126
:207180008093AA01892B09F4289AE0E0F0E0859194918F5F9F4F49F08091AC019091AD0151
:2071A00001969093AD018093AC01FF91EF919F918F912F910F900FBE0F901F90189584E0BC
:2071C0008093E9000DC08091E8008B778093E80003C08EB3882351F08091E80082FFF9CFBE
:2071E0008091E80085FFEFCF8091F1000895982F83E08093E9008091E80085FD0DC0809136
:20720000E8008E778093E80003C08EB3882369F08091E80080FFF9CF9093F1005D9884E6CB
:2072200090E09093A9018093A80108954F925F926F927F928F929F92AF92BF92CF92DF921E
:20724000EF92FF920F931F93CF93DF9384E08093E9008091E80082FF57C2289884E690E067
:207260009093AB018093AA01AADF182F853481F48CE49DE19093AD018093AC0107B600FC4B
:20728000FDCFF999FECF81E180935700E89503C0843519F494DF8DE00DC28C34E1F38035F9
:2072A000D1F3843721F484E4A2DF80E003C2813611F489E5FFC18134B1F481DF182F7FDFE3
:2072C00090E0880F991FAA2797FDA095BA2F312F330F20E0442737FD4095542F822B932B68
:2072E000A42BB52BB8C1803711F483E5E3C1833549F4C0E0D1E089917ADF21E0C730D20714
:20730000D1F7D9C1863521F481E371DF80E3D2C1833731F487E86BDF85E969DF8EE1CAC149
:207320008536B9F4E0E0F0E093E085E090935700E89507B600FCFDCF80935700E89507B65D
:2073400000FCFDCFE058FF4FA0E7E030FA0771F7A2CF823739F4E1E0F0E089E08093570024
:207360008491A8C1863439F4E0E0F0E089E08093570084919FC18E3439F4E3E0F0E089E0E5
:2073800080935700849196C1813539F4E2E0F0E089E08093570084918DC1823631F489E521
:2073A00026DF80E024DF80E885C1823419F0873609F0E5C01092AD011092AC0100DF082FE8
:2073C000FEDEF82EFCDE682E8554823008F071C1902F80E0CF2DD0E0C82BD92B10926F00B3
:2073E000173609F04BC081E180935700E895DD24CC24C3943FC0E090AE01F090AF010091CC
:20740000B0011091B101B6E46B16D9F4ED2DF0E0EE29FF29E4918E2FEADEDD2081F082E08D
:2074200090E0A0E0B0E0E80EF91E0A1F1B1FE092AE01F092AF010093B0011093B101DC2470
:2074400018C0D801C701B695A7959795879559D5CEDE82E090E0A0E0B0E0E80EF91E0A1FF2
:207460001B1FE092AE01F092AF010093B0011093B1012197209709F0BECF7DC08090AE01F5
:207480009090AF01A090B001B090B10196E4691609F05DC083E0F40180935700E89507B63E
:2074A00000FCFDCF54C0F6E46F1661F5772031F1E090AE01F090AF010091B0011091B1019E
:2074C0007EDED82ECC24852D90E08C299D29F7010C0140925700E895112482E090E0A0E08B
:2074E000B0E0E80EF91E0A1F1B1FE092AE01F092AF010093B0011093B10102C060DE582E1A
:20750000742423C0E090AE01F090AF010091B0011091B10116950795F794E79450DE682FFA
:20752000C701F7D48091AE019091AF01A091B001B091B1010296A11DB11D8093AE01909349
:20754000AF01A093B001B093B101219704C05524772444244394209709F0A5CF96E46916B6
:2075600041F485E0F40180935700E89507B600FCFDCF8DE03CDE82E080936F009CC0833492
:2075800071F40091AE011091AF0119DE90E021E0F8010C0120935700E89511247CCE8336C8
:2075A00019F5E090AE01F090AF010091B0011091B10105DEF701E16090E021E00C0120938C
:2075C0005700E895112482E090E0A0E0B0E0E80EF91E0A1F1B1FE092AE01F092AF0100936A
:2075E000B0011093B10157CE8D3661F4E091AE01F091AF0185E080935700E89507B600FCF2
:20760000FDCF49CE823551F4E091AE01F091AF0105911491812FEBDD802F4CC0843421F5FE
:20762000E090AE01F090AF010091B0011091B10116950795F794E794C2DD682FC70169D4DE
:207640008091AE019091AF01A091B001B091B1010296A11DB11D8093AE019093AF01A093D8
:20766000B001B093B10117CE843609F5E090AE01F090AF010091B0011091B101D801C70142
:20768000B695A795979587953CD4B1DD82E090E0A0E0B0E0E80EF91E0A1F1B1FE092AE010A
:2076A000F092AF010093B0011093B10104C08B3111F08FE39CDD83E08093E9009091E8002B
:2076C0008091E8008E778093E80095FF04C010C08EB38823C9F08091E80080FFF9CF809193
:2076E000E8008E778093E80003C08EB3882361F08091E80080FFF9CF84E08093E9008091F1
:20770000E8008B778093E800DF91CF911F910F91FF90EF90DF90CF90BF90AF909F908F90AC
:207720007F906F905F904F9008959091B601892F8F77813249F58091B7018032A1F081328A
:2077400019F5913A09F58091E800877F8093E8008DE091E067E070E00BD28091E8008B770B
:207760008093E8000895913279F48091E800877F8093E8008DE091E067E070E05DD2809192
:20778000E8008E778093E800089582E061EC42E0B5D083E061E842E1B1D084E060E842E1EF
:2077A000ADC084B7877F84BF88E10FB6F89480936000109260000FBE20E880E090E00FB63F
:2077C000F89420936100809361000FBE81E085BF92E095BF3F9A209A559AE1E6F0E02083A1
:2077E000108247985D9A289A109289008AEF8093880090936F0083E080938100F0C0409116
:20780000000850910108109201081092000894B714BE88E10FB6F8948093600010926000D5
:207820000FBE292F30E0F901E270F07091FD18C090FF05C0859194918F5F9F4F81F423FFFF
:207840000FC08091090190910A014817590741F0E0E0F0E0859194918F5F9F4F09F042DC64
:20786000A0DF78941092AD011092AC010CC0DEDC36D38091AC019091AD0181549F4110F00D
:207880001092140141DC80911401882381F78091E00081608093E00025DC80E090E0089598
:2078A000FA01923049F0933061F09130F9F485E191E022E130E01EC087E291E02EE330E04D
:2078C00019C0882329F485E691E024E030E012C0813029F489E691E022E230E00BC0823006
:2078E00029F48DE891E028E130E004C080E090E020E030E091838083C90108958093E9004E
:207900008091EB0081608093EB001092ED006093EC004093ED008091EE00881F8827881F62
:2079200008958091B60188238CF403C08EB38823B1F08091E80082FFF9CF8091E8008B772A
:207940008093E80008958EB3882349F08091E80080FFF9CF8091E8008E778093E800089594
:20796000EF92FF920F931F9345D04CD008ED10E0F80180818F77808380818068808380819B
:207980008F7D808319BC1EBA1092B40180EEE82EF12CF70180818B7F8083F8018081816052
:2079A000808380E060E042E0A9DFE1EEF0E080818E7F8083E2EEF0E0808181608083808144
:2079C00088608083F70180818E7F8083F8018081806180831F910F91FF90EF900895E7ED06
:2079E000F0E08081816080838AE482BF81E08093B501B6CFE8EDF0E080818E7F808310921C
:207A0000E20008951092DA001092E10008951F920F920FB60F9211242F933F934F935F93F6
:207A20006F937F938F939F93AF93BF93EF93FF938091DA0080FF1BC08091D80080FF17C0B2
:207A40008091DA008E7F8093DA008091D90080FF0BC080E189BD82E189BD09B400FEFDCF36
:207A600081E08EBB3BD203C019BC1EBA37D28091E10080FF17C08091E20080FF13C0809138
:207A8000E2008E7F8093E2008091E20080618093E2008091D80080628093D80019BC85E049
:207AA0008EBB1CD28091E10084FF2CC08091E20084FF28C080E189BD82E189BD09B400FEC5
:207AC000FDCF8091D8008F7D8093D8008091E1008F7E8093E1008091E2008F7E8093E20012
:207AE0008091E20081608093E2008091B401882331F48091E30087FD02C081E001C084E067
:207B00008EBBECD18091E10083FF21C08091E20083FF1DC08091E100877F8093E10082E06A
:207B20008EBB1092B4018091E1008E7F8093E1008091E2008E7F8093E2008091E2008061E9
:207B40008093E20080E060E042E0D8DEC7D1FF91EF91BF91AF919F918F917F916F915F9130
:207B60004F913F912F910F900FBE0F901F9018959C014091BC015091BD014617570718F49D
:207B8000F90190E044C06115710511F0AB01F8CF8091E8008E778093E80040E050E0F0CF0F
:207BA0008EB3882309F444C0853009F443C08091E80083FF02C081E008958091E80082FD70
:207BC00031C08091E80080FF22C08091F3009091F200782F60E0292F30E0262B372B07C07A
:207BE00081918093F100415050402F5F3F4F4115510519F02830310598F390E02830310566
:207C000009F491E08091E8008E778093E8004115510531F6992321F605C08EB3882341F075
:207C2000853041F08091E80082FFF7CF80E0089582E0089583E008959C016115710529F47C
:207C40008091E8008B778093E800F90126C08EB3882391F1853091F18091E80083FF02C06C
:207C600081E008958091E80082FFF1CF06C08091F10081936150704059F02091F300809191
:207C8000F200322F20E090E0822B932B892B79F78091E8008B778093E80061157105B9F601
:207CA00005C08EB3882341F0853041F08091E80080FFF7CF80E0089582E0089583E00895C2
:207CC0000F931F93DF93CF9300D0CDB7DEB7E6EBF1E08091F100819381E0EE3BF807C9F792
:207CE00024DD8091E80083FFE4C08091B6019091B701953009F46DC0963040F4913081F1A7
:207D0000913070F0933009F0D4C02AC0983009F4A3C0993009F4B2C0963009F0CAC07CC023
:207D2000803809F4C6C0823809F0C3C08091BA0187708093E9008091EB001092E9002091DB
:207D4000E800277F2093E80090E025E0969587952A95E1F781708093F1001092F10087C0D8
:207D6000882319F0823009F0A4C08F71823009F0A0C08091B801882331F52091BA01277097
:207D800009F497C02093E9008091EB0080FF1BC0933021F48091EB00806213C08091EB0018
:207DA00080618093EB0081E090E002C0880F991F2A95E2F78093EA001092EA008091EB00E5
:207DC00088608093EB001092E9008091E800877F51C0882309F06DC01091B8011F770FB79B
:207DE000F8948091E800877F8093E8009ADD8091E80080FFFCCF8091E3008078812B809398
:207E0000E30080688093E300112311F482E001C083E08EBB0FBF4DC08058823008F049C033
:207E20008091B8019091B9016091BA01AE014F5F5F4F36DDBC01009709F43BC08091E8008E
:207E4000877F8093E80089819A8192DE8091E8008B778093E8002DC0803859F58091E800AA
:207E6000877F8093E8008091B4018093F1008091E8008E778093E80054DD1BC08823C9F4CA
:207E80009091B8019230A8F48091E800877F8093E8009093B40145DD8091B401882331F420
:207EA0008091E30087FD02C081E001C084E08EBB6CDC8091E80083FF0AC08091EB0080624E
:207EC0008093EB008091E800877F8093E8000F900F90CF91DF911F910F91089508951F9360
:207EE0008EB3882361F01091E9001092E9008091E80083FF01C0E4DE17701093E9001F916F
:207F00000895F999FECF92BD81BDF89A992780B50895262FF999FECF1FBA92BD81BD20BDBD
:207F20000FB6F894FA9AF99A0FBE01960895F894FFCF4341544552494E4100777700080031
:207F40000000000000080112011001020000084123360001000201000109023E00020100FF
:207F600080320904000001020201000524001001042402040524060001070582030800FF0C
:207F800009040100020A000000070504021000010705830210000104030904220341007216
:207FA000006400750069006E006F0020004C0065006F006E006100720064006F0000001836
:1A7FC00003410072006400750069006E006F0020004C004C004300000000D7
:00000001FF
