:100000000C944D040C9475040C9475040C947504B4
:100010000C9475040C9475040C9475040C9475047C
:100020000C9475040C9475040C94940F0C9456075E
:100030000C9475040C9475040C9475040C9475045C
:100040000C9475040C94540B0C9475040C94750466
:100050000C9475040C9475040C9475040C94940A17
:100060000C9475040C9475040C9475040C9475042C
:100070000C9475040C9475040C9475040C9475041C
:100080000C94F20B0C9475040C9475040C94750488
:100090000C9475040C9475040C9475040C947504FC
:1000A0000C9475040C9475040C9475046C056F0520
:1000B0005E05620566059005900590057305770558
:1000C0007B058105850590058B05E909EE09F30996
:1000D000FD09070A510A510A510A110A1B0A250A89
:1000E0002F0A3C0A510A440A00000000003E5B4F00
:1000F0005B3E3E6B4F6B3E1C3E7C3E1C183C7E3C88
:10010000181C577D571C1C5E7F5E1C00183C180095
:10011000FFE7C3E7FF0018241800FFE7DBE7FF3025
:10012000483A060E2629792926407F050507407F93
:1001300005253F5A3CE73C5A7F3E1C1C08081C1C06
:100140003E7F14227F22145F5F005F5F06097F01FC
:100150007F006689956A606060606094A2FFA294E7
:1001600008047E040810207E201008082A1C0808B5
:100170001C2A08081E101010100C1E0C1E0C303803
:100180003E3830060E3E0E06000000000000005F04
:1001900000000007000700147F147F14242A7F2A20
:1001A00012231308646236495620500008070300E2
:1001B000001C2241000041221C002A1C7F1C2A082E
:1001C000083E080800807030000808080808000091
:1001D00060600020100804023E5149453E00427F05
:1001E000400072494949462141494D331814127F54
:1001F0001027454545393C4A4949314121110907F4
:100200003649494936464949291E00001400000074
:100210004034000000081422411414141414004146
:1002200022140802015909063E415D594E7C121103
:10023000127C7F494949363E414141227F4141413B
:100240003E7F494949417F090909013E41415173B6
:100250007F0808087F00417F41002040413F017F27
:10026000081422417F404040407F021C027F7F04EF
:1002700008107F3E4141413E7F090909063E415138
:10028000215E7F09192946264949493203017F0128
:10029000033F4040403F1F2040201F3F4038403F29
:1002A000631408146303047804036159494D43003F
:1002B0007F4141410204081020004141417F040276
:1002C000010204404040404000030708002054540D
:1002D00078407F28444438384444442838444428EB
:1002E0007F385454541800087E090218A4A49C783E
:1002F0007F0804047800447D40002040403D007F9A
:100300001028440000417F40007C047804787C0879
:100310000404783844444438FC182424181824244D
:1003200018FC7C08040408485454542404043F4432
:10033000243C4040207C1C2040201C3C4030403C61
:1003400044281028444C9090907C4464544C4400C1
:100350000836410000007700000041360800020125
:100360000204023C2623263C1EA1A161123A404011
:10037000207A38545455592155557941215454788F
:1003800041215554784020545579400C1E52721228
:1003900039555555593954545459395554545800B0
:1003A00000457C410002457D420001457C40F0292A
:1003B0002429F0F0282528F07C5455450020545479
:1003C0007C547C0A097F49324949493232484848BD
:1003D00032324A4848303A4141217A3A4240207804
:1003E000009DA0A07D39444444393D4040403D3CFF
:1003F00024FF2424487E4943662B2FFC2F2BFF0922
:1004000029F620C0887E0903205454794100004415
:100410007D413048484A32384040227A007A0A0A00
:10042000727D0D19317D2629292F28262929292673
:1004300030484D4020380808080808080808382FB8
:1004400010C8ACBA2F102834FA00007B0000081442
:100450002A142222142A14089500220095AA005575
:1004600000AAAA55AA55AA000000FF00101010FF0C
:1004700000141414FF001010FF00FF1010F010F013
:10048000141414FC001414F700FF0000FF00FF1404
:1004900014F404FC141417101F10101F101F141450
:1004A000141F00101010F0000000001F101010109A
:1004B0001F10101010F010000000FF10101010108E
:1004C00010101010FF10000000FF140000FF00FFCC
:1004D00000001F10170000FC04F414141710171468
:1004E00014F404F40000FF00F7141414141414148A
:1004F000F700F7141414171410101F101F141414FD
:10050000F4141010F010F000001F101F0000001F66
:1005100014000000FC140000F010F01010FF10FF99
:10052000141414FF141010101F00000000F010FF2E
:10053000FFFFFFFFF0F0F0F0F0FFFFFF0000000012
:1005400000FFFF0F0F0F0F0F38444438447C2A2A56
:100550003E147E02020606027E027E026355494177
:10056000633844443C04407E201E2006027E020282
:1005700099A5E7A5991C2A492A1C4C7201724C3096
:100580004A4D4D303048784830BC625A463D3E496D
:100590004949007E0101017E2A2A2A2A2A44445F11
:1005A000444440514A444040444A51400000FF0105
:1005B00003E080FF000008086B6B08361236243613
:1005C000060F090F06000018180000001010003078
:1005D00040FF0101001F01011E00191D1712003C00
:1005E0003C3C3C00000000000601150126013701DB
:1005F0004A015D01720188019F01B801D201EE013B
:100600000B022A024B026E029302BA02E4021003AA
:100610003F037003A403DC03170455049704DD04AF
:1006200027057505C80520067D06E0064907B807B9
:100630002D08A9082D09B9094D0AEA0A900B400CAA
:10064000FA0CC00D910E6F0F5A1053115B127213FA
:100650009A14D41520178018F519801B231DDE1E4F
:10066000B420A622B524E4263429A72B402E00313D
:10067000EA330037453ABC3D68414C456B49C84DAB
:1006800068524F57805C006210111213151617182C
:100690001A1C1D1F21232527292C2E3134373A3EC1
:1006A0004145494E52575C62686E757B838B939CC3
:1006B000A5AFB9C4D0DCE9F70000000200090F00C3
:1006C00000030401000C0000000000000000000016
:1006D00000000000000000F0F89C8E8783878E9C4D
:1006E000F8F00000FEFF0303030303070EFCF8000D
:1006F00000FEFF0303030303070EFCF80000FFFFE7
:1007000000000000000000FFFF0000FEFF83838365
:100710008383C7EE7C380000F8FC0E070303030751
:100720000EFCF800003F7FE0C08080C0E07F3FFF0C
:10073000FF01010101010101FFFF0000FFFF0C0C9F
:100740000C0C1C3E77E3C100007FFFC0C0C0C0C0DE
:10075000E0703F1F00001F3F70E0C0C0C0E0703F6E
:100760001F00007FFFC1C1C1C1C1E3773E1C000073
:100770001F3F70E0C0C0C0E0703F1F0000000000DD
:1007800001FFFF0100000000000000240027002AF4
:10079000002D003000D5F08D14A1C881CFD9F1AF64
:1007A00020001402130212021502070208020401BB
:1007B0000C01060100FE013D25253D0101C1013D61
:1007C00025253D01FE7F809CBCB0B0B2B2B3B0B075
:1007D000B0BC9C807F080B000202020100090400EB
:1007E000000102020000052400100105240101019E
:1007F00004240206052406000107058103100040B9
:1008000009040100020A000000070502024000007E
:10081000070583024000000403090412010002EFEF
:10082000020140412336800001010203014172644C
:1008300075696E6F204C4C430041726475696E6F30
:10084000204C656F6E6172646F00040802011040F5
:100850008040102040804080080204018040201029
:1008600002011080102040402000000000250028D8
:10087000002B002E003100040404040403040502CC
:10088000020202040302020202060606060606042B
:100890000402020204040301361211241FBECFEF2A
:1008A000DAE0DEBFCDBF11E0A0E0B1E0ECE9F5E2B7
:1008B00002C005900D92A236B107D9F726E0A2E654
:1008C000B1E001C01D92AB30B207E1F714E0CDE416
:1008D000D4E004C02197FE010E94C112CC34D1079C
:1008E000C9F70E9406100C94CC120C9400004091A1
:1008F000840150918501209182013091830142173A
:100900005307B4F49091E8009570E1F39091E800FA
:1009100092FD19C08093F10080918401909185012E
:1009200001968F739927892B19F48EEF8093E80035
:100930008091840190918501019690938501809327
:10094000840181E0089580E00895CF92DF92EF92D4
:10095000FF920F931F93CF93DF931F92CDB7DEB714
:10096000182F062FE42E862F880F8E5F99830E9402
:10097000770483E00E947704F12EC12E9981D92E4D
:100980008C2D8F19801798F4F601E7FE02C0849130
:1009900001C080810E947704182F80E00E947704B4
:1009A0008123FFEFCF1ADF0A8111EACF01C081E076
:1009B0000F90DF91CF911F910F91FF90EF90DF90FB
:1009C000CF900895DF92EF92FF920F931F93CF93F2
:1009D000DF93D82E8A017B01E40EF51EEB01CE15C4
:1009E000DF0571F0D7FE03C0FE01849101C088814C
:1009F0000E94770421968111F2CF8FEF9FEF01C003
:100A0000C801DF91CF911F910F91FF90EF90DF9080
:100A10000895615030F02091F100FC01208301968F
:100A2000F8CF289884E6809389010895CF92DF92C9
:100A3000EF92FF920F931F93CF93DF936C017A0194
:100A40008B01C0E0D0E0CE15DF0589F0D8016D91B3
:100A50008D01D601ED91FC910190F081E02DC60150
:100A60000995892B11F47E0102C02196ECCFC701B4
:100A7000DF91CF911F910F91FF90EF90DF90CF907A
:100A80000895362F90E0FC01E854F94F4491FC01A1
:100A9000E65BF74F2491FC01E958F74F84918823D6
:100AA00009F451C04423E1F150E0FA013197EF30ED
:100AB000F105B0F5EA5AFF4F0C94C11290918000F5
:100AC0009F7707C0909180009F7D03C09091800028
:100AD000977F9093800024C094B59F7702C094B50F
:100AE0009F7D94BD1DC0909190009F7707C090910D
:100AF00090009F7D03C090919000977F909390000D
:100B00000FC09091C0009F7703C09091C0009F7D5F
:100B10009093C00005C09091C200977F9093C2004F
:100B2000E82FF0E0EE0FFF1FE759F74FA591B491C2
:100B30008FB7F894EC91311103C020952E2301C09A
:100B40002E2B2C938FBF08953FB7F8948091750199
:100B500090917601A0917701B091780126B5A89B7C
:100B600005C02F3F19F00196A11DB11D3FBFBA2F3F
:100B7000A92F982F8827820F911DA11DB11DBC019F
:100B8000CD0142E0660F771F881F991F4A95D1F764
:100B900008958FB12CB193B130E020953095207439
:100BA0003327A90123E0559547952A95E1F7292F89
:100BB00030E0209530952071332735952795359570
:100BC0002795242B8095807F822B0895FC0121910D
:100BD0002EBD9C5F21910DB407FEFDCF2EBDE81701
:100BE000F907C1F70DB407FEFDCF08952F923F928C
:100BF0004F925F926F927F928F929F92AF92BF922D
:100C0000CF92DF92EF92FF920F931F93CF93DF93D8
:100C100000D000D000D0CDB7DEB76A3091F4FC012F
:100C2000E85EFB4F408132972081318158E0459F3B
:100C3000200D311D112431832083329711821082BF
:100C4000E4C06D3009F4E1C0FC01E85EFB4FD080E8
:100C50003297608071801C017CEE271A7BEF370A87
:100C6000D1012D913C910D2D10E0203831057CF003
:100C7000B6E0DB9E200D311D1124F101318320836C
:100C8000FC01E75EFB4F4081411194C0BEC0F0E41F
:100C90006F1671046CF7A90175E0D79E400D511DC8
:100CA00011241416150624F7A80173E0440F551FEC
:100CB0007A95E1F7460D571D14161506CCF6E5E0BA
:100CC0006E9FD0011124BA83A983490160E070E0CE
:100CD00044244394512C6530710541F0E981FA8137
:100CE000E60FF71FE851FF4FE49101C0E0E0530128
:100CF000F8E04E2F4170C42E9C828B824B814819A4
:100D00004D1508F048C0A501F42EB42FBA19BD1531
:100D1000D8F5AB81BC81A038B10598F540345105B8
:100D200080F5AF2DA695A695A695EA2EF12CDA01B1
:100D3000A770BB27BE83AD83D701B695BA2FAA276C
:100D4000B795A795EB80FC80AE0DBF1DA80FB91F0E
:100D500072010D8002C0EE0CFF1C0A94E2F7FE82C5
:100D6000ED82CC2031F05496FC905497ED80EF2822
:100D700006C0ED80E0945496FC905497EF20549672
:100D8000EC924F5F5F4FC0CF4B815C814F5F5F4FF5
:100D90005C834B83B3CFE695F150A00EB11EF111E9
:100DA000A8CF6F5F7F4F800E911E6630710509F0EE
:100DB00092CF5ECF6AEF6003A001619F500D1124B6
:100DC00040585F4F4217530704F5DC01ED91FC9149
:100DD0000190F081E02D6AE026960FB6F894DEBF10
:100DE0000FBECDBFDF91CF911F910F91FF90EF907C
:100DF000DF90CF90BF90AF909F908F907F906F903B
:100E00005F904F903F902F90099426960FB6F894DC
:100E1000DEBF0FBECDBFDF91CF911F910F91FF902D
:100E2000EF90DF90CF90BF90AF909F908F907F908A
:100E30006F905F904F903F902F900895089580E0BD
:100E400090E008950F931F93CF93DF931F92CDB738
:100E5000DEB782E0898342E450E065ED77E080E828
:100E60000E94E2040E94800FDC0112960D911C91F9
:100E700013970115110569F0D801ED91FC910280DD
:100E8000F381E02DBE016F5F7F4FC801099597FF89
:100E900007C089810F90DF91CF911F910F91089525
:100EA000F80100851185E5CF0E94C7121F920F92AD
:100EB0000FB60F921124CF92DF92EF92FF920F9311
:100EC0001F932F933F934F935F936F937F938F93D2
:100ED0009F93AF93BF93EF93FF93CF93DF93CDB7E0
:100EE000DEB76C97DEBFCDBF1092E9008091E800BD
:100EF00083FFEDC168E0CE0145960E94090582EFAF
:100F00008093E8008D8987FF05C09091E80090FFED
:100F1000FCCF03C09EEF9093E800982F907609F0E5
:100F2000C6C09E892F89188D91110CC0803829F474
:100F3000809187018093F10002C01092F10010921D
:100F4000F10048C1422F50E0512B913051F48111F2
:100F500041C14130510509F03DC1809187018D7F2C
:100F60000BC0933061F4811135C14130510509F056
:100F700031C1809187018260809387012BC19530B8
:100F800041F48091E80080FFFCCF20682093E300CB
:100F900021C1963009F05FC0EB8CFC8C1092E90007
:100FA0001092850110928401123091F51092830104
:100FB000109282010E94220799E0BE016F5F7F4F6D
:100FC000DB01E92F1D92EA95E9F799831A8391E0F5
:100FD0009E8390EA98879AEF9987209184013091B7
:100FE0008501275F3F4F3C832B838D831092E9005F
:100FF0001092850110928401F0928301E0928201A7
:1010000049E050E080E00E94E2040E942207E2C032
:10101000F0928301E09282010E94800FDC0112961F
:10102000ED90FC901397E114F10409F4C0C0D701CE
:10103000ED91FC910480F581E02DBE016B5E7F4F48
:10104000C7010995009719F00CF0C4C0C7C0F7019B
:10105000E084F184E8CF973009F4C0C0983021F4DF
:1010600081E08093F100B6C0993009F0B3C083707D
:1010700009F0B4C0EDE0F1E081E021E036E39081D9
:10108000992361F08093E9002093EB009191909374
:10109000EC003093ED008F5F873089F78EE7809307
:1010A000EA001092EA008F8980938A0193C08B8DA9
:1010B0009C8D1092E900109285011092840190930A
:1010C000830180938201898D811156C08E899D890B
:1010D000913A59F4813209F081C047E050E064E070
:1010E00071E080E00E94E20475C0913209F076C0A0
:1010F000833289F4888D90E0982F88272F89822B5E
:10110000A0E0B0E08093000190930101A093020160
:10111000B09303015FC0803269F48091E80082FFE0
:10112000FCCF67E084E091E00E9409058BEF80939B
:10113000E80006C0823209F04DC08F8980930B0110
:1011400080918601882319F0EEEFFAE002C0E0E01A
:10115000F8E08091040190910501A0910601B09101
:101160000701803B9440A105B10509F07BC0809147
:101170000B0180FF93C076C00E94800FDC011296A5
:101180000D911C9113970115110541F1D801ED91B5
:10119000FC910190F081E02DBE016B5E7F4FC80194
:1011A0000995811117C0F80100851185ECCF113028
:1011B00009F44EC0133091F48F89882309F445C097
:1011C000823081F440E860E189E398E00E94A50460
:1011D000882321F08EEF8093E80079C081E280932C
:1011E000EB0075C0813029F440E86BE08DE298E0B7
:1011F000EDCF833099F70E94800FDC011296ED90BD
:10120000FC9013978E010F5F1F4F6801E114F104EA
:1012100079F0D701ED91FC910680F781E02DB801BE
:10122000C7010995080F111DF701E084F184EECF85
:10123000D8011C92F60101900020E9F73197BF0117
:101240006C197D0940E0C601C1CF67E178E002C0BA
:101250006BE178E06115710509F2FB01449150E002
:1012600080E840CF0FB6F894A8958091600088611F
:1012700080936000109260000FBEA895EE3F2AE0B8
:10128000F20739F08091FE0A9091FF0A91838083E2
:10129000A1CF1092FF0A1092FE0A9CCFEE3F8AE087
:1012A000F80731F0808191819093FF0A8093FE0AC4
:1012B00087E797E7918380839BE088E10FB6F894F6
:1012C000A895809360000FBE9093600083CF6C96CA
:1012D0000FB6F894DEBF0FBECDBFDF91CF91FF9167
:1012E000EF91BF91AF919F918F917F916F915F919E
:1012F0004F913F912F911F910F91FF90EF90DF90B1
:10130000CF900F900FBE0F901F901895CF93DF9343
:1013100090E0FC01E65BF74F2491FC01E958F74FA0
:101320008491882361F190E0880F991FFC01E957AF
:10133000F84FC591D491FC01E759F74FA591B491AD
:10134000611109C09FB7F894888120958223888312
:10135000EC912E230BC0623061F49FB7F894388172
:10136000822F809583238883EC912E2B2C939FBF13
:1013700006C08FB7F894E8812E2B28838FBFDF91AA
:10138000CF9108951F93CF93DF93182FEB0161E066
:101390000E948609209711F460E004C0CF3FD10578
:1013A00039F461E0812FDF91CF911F910C944105B9
:1013B000E12FF0E0E854F94FE4914E2F50E0FA01AC
:1013C0003197EF30F10508F06CC0EB59FF4F0C94EA
:1013D000C11284B5806884BDC7BD68C084B5806211
:1013E00084BDC8BD63C08091800080688093800008
:1013F000D0938900C093880059C08091800080629A
:1014000080938000D0938B00C0938A004FC080915E
:101410008000886080938000D0938D00C0938C0002
:1014200045C080919000806880939000D09399008F
:10143000C09398003BC080919000806280939000A0
:10144000D0939B00C0939A0031C080919000886037
:1014500080939000D0939D00C0939C0027C0809102
:10146000C00080688093C0008091C0008F7B809313
:10147000C000C093CF001AC08091C00080628093EA
:10148000C000C093D00012C08091C20088608093D9
:10149000C2008091C2008B7F8093C200C093D200B3
:1014A00005C0C038D1050CF07CCF76CFDF91CF914D
:1014B0001F9108958F929F92AF92BF92CF92DF9229
:1014C000EF92FF926B017C010E94A4054B015C012D
:1014D000C114D104E104F104F1F00E94A405DC017F
:1014E000CB0188199909AA09BB09883E9340A10537
:1014F000B10570F321E0C21AD108E108F10888EEC5
:10150000880E83E0981EA11CB11CC114D104E10413
:10151000F10419F7DDCFFF90EF90DF90CF90BF90EF
:10152000AF909F908F9008951F920F920FB60F92D9
:1015300011242F933F938F939F93AF93BF938091E9
:10154000710190917201A0917301B0917401309179
:10155000700123E0230F2D3720F40196A11DB11D4A
:1015600005C026E8230F0296A11DB11D209370012E
:101570008093710190937201A0937301B0937401F1
:101580008091750190917601A0917701B0917801D9
:101590000196A11DB11D8093750190937601A093D2
:1015A0007701B0937801BF91AF919F918F913F9157
:1015B0002F910F900FBE0F901F901895CF92DF9232
:1015C000EF92FF920F931F93CF93E82FF0E0EA562C
:1015D000F74FC491E62FF0E0603330F4E857F94F4D
:1015E000E4910E2F10E006C0EE0FFF1FE857FA4FF0
:1015F000059114916801E12CF12C60E074E284EF14
:1016000090E0A70196010E947112BA01A901415010
:101610005109610971094115510581E0680771059A
:1016200080F060E970ED83E090E0A70196010E94F0
:101630007112BA01A901415051096109710983E090
:1016400001C081E0C130C9F0C33031F59091910003
:10165000987F892B80939100509399004093980034
:1016600010936F0100936E0181E080936D01809172
:1016700071008260809371000FC090918100987F0B
:10168000892B80938100509389004093880080913A
:101690006F00826080936F00CF911F910F91FF9038
:1016A000EF90DF90CF9008951F920F920FB60F9298
:1016B00011242F933F938F939F93AF93BF93EF93F7
:1016C000FF9380916601882309F44DC080916201E7
:1016D00090916301A0916401B0916501892B8A2BDF
:1016E0008B2B51F180918E01E0918F01F09190014F
:1016F0009081892780838091620190916301A091FC
:101700006401B0916501181619061A061B06A4F5A6
:101710008091620190916301A0916401B091650193
:101720000197A109B1098093620190936301A0938D
:101730006401B093650120C01092660180916F0032
:101740008D7F80936F0090918E01E0918F01F091D9
:1017500090018081282F30E0892F90E0809590952E
:101760008223932308C080918E01E0918F01F09134
:101770009001908189278083FF91EF91BF91AF9174
:101780009F918F913F912F910F900FBE0F901F90BF
:101790001895E82FF0E0EA56F74FE491E13019F0A0
:1017A000E33069F0089580916F008D7F80936F0022
:1017B00090918E01E0918F01F091900108C01092FC
:1017C0006D0190918B01E0918C01F0918D018081F0
:1017D000282F30E0892F90E08095909582239323E5
:1017E000808308951F920F920FB60F9211242F93AA
:1017F0003F934F935F936F937F938F939F93AF9399
:10180000BF93EF93FF9380916D01882349F08091FE
:101810008B01E0918C01F0918D019081892780836B
:1018200080917A01882309F493C080916901909195
:101830006A01A0916B01B0916C01892B8A2B8B2BD3
:1018400009F486C08091690190916A01A0916B01B1
:10185000B0916C010197A109B1098093690190933E
:101860006A01A0936B01B0936C01892B8A2B8B2B9F
:1018700009F06EC0E0916701F0916801BF016F5FF0
:101880007F4F70936801609367014491942F907F1C
:10189000842F8F70903819F40E94C90BEBCF9039C8
:1018A00081F43296F0936801E0936701FB01649143
:1018B000909191018917F0F667FDDCCF0E94DE0A56
:1018C000D9CF903E29F41092680110926701D2CFCF
:1018D000903F19F410927A013BC097FDCBCF32961E
:1018E000F0936801E0936701FB01249130E0342B11
:1018F000A0916E01B0916F010E94B2126C507E4FA8
:101900008F4F9F4F28EE33E040E050E00E9490124E
:101910002093690130936A0140936B0150936C01ED
:101920008091690190916A01A0916B01B0916C0165
:10193000892B8A2B8B2B61F481E090E0A0E0B0E052
:101940008093690190936A01A0936B01B0936C013D
:10195000FF91EF91BF91AF919F918F917F916F9187
:101960005F914F913F912F910F900FBE0F901F905D
:101970001895FC0180918A01811103C08FEF9FEFC0
:1019800008959FB7F89482E08093E9002091F200D7
:1019900030E01216130614F421E030E02115310571
:1019A00059F0289884E6809389018091F100808322
:1019B0008091F200882319F09FBFC90108958BE63A
:1019C0008093E800F9CF2FB7F89483E08093E90083
:1019D0009091E800892F807295FF04C09091F200E9
:1019E00080E4891B2FBF0895CF93DF931F92CDB75B
:1019F000DEB76983DC01ED91FC910280F381E02D7B
:101A000041E050E0BE016F5F7F4F09950F90DF917D
:101A1000CF91089583E08093E9008091F2008823BC
:101A200019F08AE38093E80008950E94E30C90E0A7
:101A30000895CF93DF931F92CDB7DEB7FC01848565
:101A4000958597FD05C02FEF3FEF358724870BC0A5
:101A5000CE0101960E94B90C019719F4898190E09A
:101A600002C08FEF9FEF0F90DF91CF9108950F93FA
:101A70001F93CF93DF931F92CDB7DEB78C01FC018C
:101A80008485958597FF0EC0CE0101960E94B90C02
:101A9000019719F4298130E002C02FEF3FEFF801E0
:101AA00035872487F801848595850F90DF91CF9144
:101AB0001F910F910895FC018485958597FD0BC0BA
:101AC0009FB7F89482E08093E9008091F2009FBF75
:101AD00090E0019608959FB7F89482E08093E90022
:101AE0008091F2009FBF90E008958F929F92AF92F5
:101AF000BF92CF92DF92EF92FF920F931F93CF93FB
:101B0000DF935C016B017A0180910B01882309F45A
:101B10005BC080918A01882309F456C080918801B6
:101B200080FF05C08091E00082608093E000E701C3
:101B300010E00AEF83E0882E9AE3992E2097D9F1DE
:101B40000E94E30C81110AC0015009F43DC061E01C
:101B500070E080E090E00E945A0AF0CF282F30E039
:101B6000C217D3070CF48C2F4FB7F8948092E9007A
:101B70009091E80095FF1DC0282F30E0C21BD30BC9
:101B8000F601982F915020F081918093F100FACFC7
:101B9000C20ED31E112319F09092E80009C0809163
:101BA000E80085FD06C09092E80011E0209709F05A
:101BB00010E04FBFC3CF1111C3CF5D9884E680936F
:101BC000AC051E141F0444F081E090E0F5019383FE
:101BD000828380E090E001C0C701DF91CF911F9127
:101BE0000F91FF90EF90DF90CF90BF90AF909F90BC
:101BF0008F90089520E086EA91E0B22FB111BFEFF7
:101C0000FC010024B193B193B193B1930394D1F744
:101C10000895CF93DF9390919101923009F46EC0B3
:101C2000C82F292F30E0F901EA56F74FD491F90176
:101C3000E754FA4F80839F5F9093910161E00E9487
:101C40008609D13019F0D33039F158C01092800094
:101C50001092810080918100886080938100809142
:101C600081008160809381008C2F90E0FC01E95815
:101C7000F74FE491F0E0EE0FFF1FE759F74F259182
:101C800034913093900120938F01FC01E65BF74F74
:101C9000849180938E0132C0109290001092910036
:101CA0008091910088608093910080919100816083
:101CB000809391008C2F90E0FC01E958F74FE4915C
:101CC000F0E0EE0FFF1FE759F74F25913491309365
:101CD0008D0120938C01FC01E65BF74F849180938A
:101CE0008B0180919101882321F06CE380E00E94B8
:101CF000DE0A80E0DF91CF910C94C90BDF91CF9188
:101D000008952F923F924F925F926F927F928F929F
:101D10009F92AF92BF92CF92DF92EF92FF920F937A
:101D20001F93CF93DF93CDB7DEB727970FB6F89405
:101D3000DEBF0FBECDBFA22EB12C9C012A0D3B1DD4
:101D400037FDB3C0803891050CF0AFC09B01205F18
:101D50003F4F2035310508F0A8C0DB0177FF04C0F4
:101D6000AA27BB27A61BB70BA770BB279B0177FF32
:101D700002C0295F3F4FF3E035952795FA95E1F7CB
:101D800077FF08C02150310968E070E04B018A1AE2
:101D90009B0AD401B9017695762F662777956795CA
:101DA000680F791F290102E0400E511CE12CF12C33
:101DB000E8E0F0E04F018A1A9B0A9F828E822F3F53
:101DC0000FEF300774F42F5F3F4FEA0CFB1C605895
:101DD0007F4F2415350509F468C02830310579F79F
:101DE00064C03B0110E8610E711C8B010A5D1D4F40
:101DF0006C011B821A828A809B808A149B041CF7C8
:101E0000E0E8CE16D104F9F2D7FC41C02F3FFFEF36
:101E10003F0709F447C0EA81FB81EE0DFF1DE40F87
:101E2000F51FE491480186189708860E971E2E2EFE
:101E3000312CF1010A2E02C0EE0FFF1F0A94E2F7C7
:101E4000FD83EC83F4012080EC81FD81E229FD8398
:101E5000EC833C80F40130821097C9F027303105C3
:101E6000B1F0EA81FB81EE0DFF1DE40FF51FE49157
:101E7000F0E01F010E8002C0359427940A94E2F727
:101E8000F8019080F101E9294F01F8018082EA818F
:101E9000FB813196FB83EA830F5F1F4FFFEFCF1A61
:101EA000DF0AA9CF1097E9F6F2CF27960FB6F8947C
:101EB000DEBF0FBECDBFDF91CF911F910F91FF907D
:101EC000EF90DF90CF90BF90AF909F908F907F90DA
:101ED0006F905F904F903F902F900895009769F01A
:101EE000FC0101900020E9F73197AF01481B590B25
:101EF000BC0182E991E00C94160580E090E0089521
:101F00008091B10581110DC082E08093AD0584E020
:101F10008093AE051092B0051092AF0581E08093DA
:101F2000B1058DEA95E008951F920F920FB60F92BA
:101F300011248F939F938091E1009091E100937F12
:101F40009093E10083FF0FC01092E90091E090931D
:101F5000EB001092EC0092E39093ED0010928A0156
:101F600098E09093F00082FF20C093E09093E90006
:101F70009091F200992319F09AE39093E8009091E0
:101F8000AC05992339F09091AC0591509093AC0534
:101F9000992389F190918901992339F090918901D0
:101FA000915090938901992341F184FF10C0809151
:101FB000E2008E7E81608093E2008091E1008F7E5E
:101FC0008093E100809188018E7E806111C080FF46
:101FD00016C08091E2008E7E80618093E200809145
:101FE000E1008E7E8093E100809188018E7E816089
:101FF0008093880104C05D9ACDCF289AD6CF9F9157
:102000008F910F900FBE0F901F901895789484B504
:10201000826084BD84B5816084BD85B5826085BDE4
:1020200085B5816085BD80916E00816080936E0072
:102030001092810080918100826080938100809164
:102040008100816080938100809180008160809315
:102050008000809191008260809391008091910036
:1020600081608093910080919000816080939000C6
:102070008091C10084608093C1008091C100826022
:102080008093C1008091C10081608093C1008091E4
:10209000C30081608093C3008091C0008260809300
:1020A000C0008091C20081608093C20080917A005C
:1020B000846080937A0080917A00826080937A00B5
:1020C00080917A00816080937A0080917A008068A4
:1020D00080937A0010928A011092870110928801F1
:1020E0008091D70081608093D70080EA8093D800E8
:1020F00089B5806189BD89B5826089BD09B400FE5A
:10210000FDCF61E070E080E090E00E945A0A80918B
:10211000D8008F7C80618093D8008091E000807F20
:102120008093E0008091E1008E7E8093E1008DE05D
:102130008093E200559A209AEEEFFFE78591949103
:102140008B3F9C4D19F481E080938601CFB7F894C2
:1021500080917B01811127C0E8E8F8E08491EBE5EC
:10216000F8E09491E82FF0E0EE0FFF1FE957F84FE9
:10217000A591B491EC91E92321F461E081E10E9401
:10218000410561E081E10E9486098CB580618CBDCA
:102190008CB580648CBD61E08FE00E94860961E0AF
:1021A00080E10E94860980917B018F5F80937B0193
:1021B000CFBFC2EAD7E0FE018491319664918823B3
:1021C00021F022960E948609F6CF61E086E00E9407
:1021D000410561E070E080E090E00E945A0A60E012
:1021E00086E00E9441056AE070E080E090E00E9495
:1021F0005A0A61E086E00E944105E3E8F8E0E491D4
:10220000F0E0EE0FFF1FE759F74F859194919093FF
:10221000810180938001E6E5F8E0E491E0937F019D
:10222000EBE7F8E0E491F0E0EE0FFF1FE759F74F1E
:102230008591949190937E0180937D01EEE4F8E086
:10224000E491E0937C018CB58C7F8CBD8DB5816071
:102250008DBDE0918001F0918101908180917F019D
:10226000982B9083A0917D01B0917E012C9190914B
:102270007C01909592239C93908180958923808303
:10228000E5E9F7E027E0E23AF20749F084918EBDF4
:1022900000000DB407FEFDCF8EB53196F3CFE0916F
:1022A0007D01F0917E01908180917C01892B80835A
:1022B000E0918001F0918101908180917F01809572
:1022C0008923808380916400816080936400809181
:1022D00064008260809364008091640080688093D1
:1022E0006400809164008064809364008091650044
:1022F0008160809365000E94C90587FF1AC080E055
:1023000094E01EBC00000DB407FEFDCF2EB5019772
:10231000C1F760E070E08AE00E94C20960E070E00E
:102320008BE00E94C20960E070E089E00E94C2096F
:10233000FFCFCEEEDFEF18E1EE24EA94F12C812FEF
:102340008C1BB701681B71098AE00E94C2096FEFFC
:1023500070E08BE00E94C2096FEF70E089E00E949C
:10236000C2090E94FA0D28E547ED56E0BE0184E15E
:1023700090E00E94810E86EA91E00E94E6056BE102
:1023800070E080E090E00E945A0AC03F31F46AEFAA
:1023900070E080E090E00E945A0A2196C931D10590
:1023A00071F66EEE72E080E090E00E945A0A6FEFE4
:1023B00070E08AE00E94C2096FEF70E08BE00E943B
:1023C000C2096FEF70E089E00E94C20985E00E94B7
:1023D000090E8DE00E94090E10927A0182E090E0D1
:1023E0000E946912882369F080916400877F80933E
:1023F000640080916500877F8093650081E0809311
:1024000079010E94FA0D00E010E0CAE0D0E00E94DD
:10241000FA0DD093A705C093A605D093A905C09344
:10242000A8050E94C90583FF03C081E391E009C0AC
:102430000E94C90582FF03C082E491E002C083E5E7
:1024400091E00E946E0F20E145EB57E06EE170E0F5
:102450008AE090E00E94810E86EA91E00E94E60503
:1024600001151105A1F20E940000D1CFEBEBF5E0C0
:102470001382128288EE93E0A0E0B0E0848395831B
:10248000A683B78387E191E0918380838FEF9FEFED
:1024900095878487E2E9F1E01382128289E291E074
:1024A000918380838CE3868380E181871086178205
:1024B00016861786108A118A128A1092A705109222
:1024C000A6051092A9051092A80581E08093AA059F
:1024D0000895F999FECF92BD81BDF89A992780B5EC
:1024E0000895052E97FB1EF400940E94881257FD54
:1024F00007D00E94901207FC03D04EF40C9488126F
:1025000050954095309521953F4F4F4F5F4F08951F
:1025100090958095709561957F4F8F4F9F4F08954F
:10252000A1E21A2EAA1BBB1BFD010DC0AA1FBB1FD7
:10253000EE1FFF1FA217B307E407F50720F0A21B49
:10254000B30BE40BF50B661F771F881F991F1A94B6
:1025500069F760957095809590959B01AC01BD01E0
:10256000CF010895A29FB001B39FC001A39F700D3A
:10257000811D1124911DB29F700D811D1124911D8B
:102580000895EE0FFF1F0590F491E02D099481E06E
:0C25900090E0F8940C94CC12F894FFCF6B
:10259C00FFFFFFFF00E100000000000000C1808190
:1025AC0000000000000000F40C750D150D0A0D5B09
:1025BC000D190D370D00000000F60516051F071E3E
:1025CC000748656C6C6F2C204120627574746F6EBB
:1025DC00210048656C6C6F2C204220627574746FFE
:1025EC006E210048656C6C6F2C20576F726C6421E7
:0225FC000000DD
:2070000055C000006EC000006CC000006AC0000068C0000066C0000064C0000062C0000043
:2070200060C000005EC00000F2C400005AC0000058C0000056C0000054C0000052C00000EE
:2070400050C0000078C000004CC000004AC0000048C0000046C0000044C0000042C00000BE
:2070600040C000003EC000003CC000003AC0000038C0000036C0000034C0000032C0000048
:2070800030C000002EC000002CC000002AC0000028C0000026C0000024C0000022C00000A8
:2070A00020C000001EC000001CC0000011241FBECFEFDAE0DEBFCDBF11E0A0E0B1E0E2E3BC
:2070C000FFE702C005900D92A83AB107D9F711E0A8EAB1E001C01D92AE3BB107E1F78FD30B
:2070E00026C78ECFF89410926F0010928100109285001092840081E085BF15BE47985D9AEB
:20710000289A0C94000008952091B2013091B3012F5F3F4F3093B3012093B201932F37FFA6
:2071200003C08EEF831B982F990F921710F447980895479A08951F920F920FB60F9211246E
:207140002F938F939F93EF93FF9310928500109284008091A8019091A901009741F00197D3
:207160009093A9018093A801892B09F45D9A8091AA019091AB01009741F001979093AB0126
:207180008093AA01892B09F4289AE0E0F0E0859194918F5F9F4F49F08091AC019091AD0151
:2071A00001969093AD018093AC01FF91EF919F918F912F910F900FBE0F901F90189584E0BC
:2071C0008093E9000DC08091E8008B778093E80003C08EB3882351F08091E80082FFF9CFBE
:2071E0008091E80085FFEFCF8091F1000895982F83E08093E9008091E80085FD0DC0809136
:20720000E8008E778093E80003C08EB3882369F08091E80080FFF9CF9093F1005D9884E6CB
:2072200090E09093A9018093A80108954F925F926F927F928F929F92AF92BF92CF92DF921E
:20724000EF92FF920F931F93CF93DF9384E08093E9008091E80082FF57C2289884E690E067
:207260009093AB018093AA01AADF182F853481F48CE49DE19093AD018093AC0107B600FC4B
:20728000FDCFF999FECF81E180935700E89503C0843519F494DF8DE00DC28C34E1F38035F9
:2072A000D1F3843721F484E4A2DF80E003C2813611F489E5FFC18134B1F481DF182F7FDFE3
:2072C00090E0880F991FAA2797FDA095BA2F312F330F20E0442737FD4095542F822B932B68
:2072E000A42BB52BB8C1803711F483E5E3C1833549F4C0E0D1E089917ADF21E0C730D20714
:20730000D1F7D9C1863521F481E371DF80E3D2C1833731F487E86BDF85E969DF8EE1CAC149
:207320008536B9F4E0E0F0E093E085E090935700E89507B600FCFDCF80935700E89507B65D
:2073400000FCFDCFE058FF4FA0E7E030FA0771F7A2CF823739F4E1E0F0E089E08093570024
:207360008491A8C1863439F4E0E0F0E089E08093570084919FC18E3439F4E3E0F0E089E0E5
:2073800080935700849196C1813539F4E2E0F0E089E08093570084918DC1823631F489E521
:2073A00026DF80E024DF80E885C1823419F0873609F0E5C01092AD011092AC0100DF082FE8
:2073C000FEDEF82EFCDE682E8554823008F071C1902F80E0CF2DD0E0C82BD92B10926F00B3
:2073E000173609F04BC081E180935700E895DD24CC24C3943FC0E090AE01F090AF010091CC
:20740000B0011091B101B6E46B16D9F4ED2DF0E0EE29FF29E4918E2FEADEDD2081F082E08D
:2074200090E0A0E0B0E0E80EF91E0A1F1B1FE092AE01F092AF010093B0011093B101DC2470
:2074400018C0D801C701B695A7959795879559D5CEDE82E090E0A0E0B0E0E80EF91E0A1FF2
:207460001B1FE092AE01F092AF010093B0011093B1012197209709F0BECF7DC08090AE01F5
:207480009090AF01A090B001B090B10196E4691609F05DC083E0F40180935700E89507B63E
:2074A00000FCFDCF54C0F6E46F1661F5772031F1E090AE01F090AF010091B0011091B1019E
:2074C0007EDED82ECC24852D90E08C299D29F7010C0140925700E895112482E090E0A0E08B
:2074E000B0E0E80EF91E0A1F1B1FE092AE01F092AF010093B0011093B10102C060DE582E1A
:20750000742423C0E090AE01F090AF010091B0011091B10116950795F794E79450DE682FFA
:20752000C701F7D48091AE019091AF01A091B001B091B1010296A11DB11D8093AE01909349
:20754000AF01A093B001B093B101219704C05524772444244394209709F0A5CF96E46916B6
:2075600041F485E0F40180935700E89507B600FCFDCF8DE03CDE82E080936F009CC0833492
:2075800071F40091AE011091AF0119DE90E021E0F8010C0120935700E89511247CCE8336C8
:2075A00019F5E090AE01F090AF010091B0011091B10105DEF701E16090E021E00C0120938C
:2075C0005700E895112482E090E0A0E0B0E0E80EF91E0A1F1B1FE092AE01F092AF0100936A
:2075E000B0011093B10157CE8D3661F4E091AE01F091AF0185E080935700E89507B600FCF2
:20760000FDCF49CE823551F4E091AE01F091AF0105911491812FEBDD802F4CC0843421F5FE
:20762000E090AE01F090AF010091B0011091B10116950795F794E794C2DD682FC70169D4DE
:207640008091AE019091AF01A091B001B091B1010296A11DB11D8093AE019093AF01A093D8
:20766000B001B093B10117CE843609F5E090AE01F090AF010091B0011091B101D801C70142
:20768000B695A795979587953CD4B1DD82E090E0A0E0B0E0E80EF91E0A1F1B1FE092AE010A
:2076A000F092AF010093B0011093B10104C08B3111F08FE39CDD83E08093E9009091E8002B
:2076C0008091E8008E778093E80095FF04C010C08EB38823C9F08091E80080FFF9CF809193
:2076E000E8008E778093E80003C08EB3882361F08091E80080FFF9CF84E08093E9008091F1
:20770000E8008B778093E800DF91CF911F910F91FF90EF90DF90CF90BF90AF909F908F90AC
:207720007F906F905F904F9008959091B601892F8F77813249F58091B7018032A1F081328A
:2077400019F5913A09F58091E800877F8093E8008DE091E067E070E00BD28091E8008B770B
:207760008093E8000895913279F48091E800877F8093E8008DE091E067E070E05DD2809192
:20778000E8008E778093E800089582E061EC42E0B5D083E061E842E1B1D084E060E842E1EF
:2077A000ADC084B7877F84BF88E10FB6F89480936000109260000FBE20E880E090E00FB63F
:2077C000F89420936100809361000FBE81E085BF92E095BF3F9A209A559AE1E6F0E02083A1
:2077E000108247985D9A289A109289008AEF8093880090936F0083E080938100F0C0409116
:20780000000850910108109201081092000894B714BE88E10FB6F8948093600010926000D5
:207820000FBE292F30E0F901E270F07091FD18C090FF05C0859194918F5F9F4F81F423FFFF
:207840000FC08091090190910A014817590741F0E0E0F0E0859194918F5F9F4F09F042DC64
:20786000A0DF78941092AD011092AC010CC0DEDC36D38091AC019091AD0181549F4110F00D
:207880001092140141DC80911401882381F78091E00081608093E00025DC80E090E0089598
:2078A000FA01923049F0933061F09130F9F485E191E022E130E01EC087E291E02EE330E04D
:2078C00019C0882329F485E691E024E030E012C0813029F489E691E022E230E00BC0823006
:2078E00029F48DE891E028E130E004C080E090E020E030E091838083C90108958093E9004E
:207900008091EB0081608093EB001092ED006093EC004093ED008091EE00881F8827881F62
:2079200008958091B60188238CF403C08EB38823B1F08091E80082FFF9CF8091E8008B772A
:207940008093E80008958EB3882349F08091E80080FFF9CF8091E8008E778093E800089594
:20796000EF92FF920F931F9345D04CD008ED10E0F80180818F77808380818068808380819B
:207980008F7D808319BC1EBA1092B40180EEE82EF12CF70180818B7F8083F8018081816052
:2079A000808380E060E042E0A9DFE1EEF0E080818E7F8083E2EEF0E0808181608083808144
:2079C00088608083F70180818E7F8083F8018081806180831F910F91FF90EF900895E7ED06
:2079E000F0E08081816080838AE482BF81E08093B501B6CFE8EDF0E080818E7F808310921C
:207A0000E20008951092DA001092E10008951F920F920FB60F9211242F933F934F935F93F6
:207A20006F937F938F939F93AF93BF93EF93FF938091DA0080FF1BC08091D80080FF17C0B2
:207A40008091DA008E7F8093DA008091D90080FF0BC080E189BD82E189BD09B400FEFDCF36
:207A600081E08EBB3BD203C019BC1EBA37D28091E10080FF17C08091E20080FF13C0809138
:207A8000E2008E7F8093E2008091E20080618093E2008091D80080628093D80019BC85E049
:207AA0008EBB1CD28091E10084FF2CC08091E20084FF28C080E189BD82E189BD09B400FEC5
:207AC000FDCF8091D8008F7D8093D8008091E1008F7E8093E1008091E2008F7E8093E20012
:207AE0008091E20081608093E2008091B401882331F48091E30087FD02C081E001C084E067
:207B00008EBBECD18091E10083FF21C08091E20083FF1DC08091E100877F8093E10082E06A
:207B20008EBB1092B4018091E1008E7F8093E1008091E2008E7F8093E2008091E2008061E9
:207B40008093E20080E060E042E0D8DEC7D1FF91EF91BF91AF919F918F917F916F915F9130
:207B60004F913F912F910F900FBE0F901F9018959C014091BC015091BD014617570718F49D
:207B8000F90190E044C06115710511F0AB01F8CF8091E8008E778093E80040E050E0F0CF0F
:207BA0008EB3882309F444C0853009F443C08091E80083FF02C081E008958091E80082FD70
:207BC00031C08091E80080FF22C08091F3009091F200782F60E0292F30E0262B372B07C07A
:207BE00081918093F100415050402F5F3F4F4115510519F02830310598F390E02830310566
:207C000009F491E08091E8008E778093E8004115510531F6992321F605C08EB3882341F075
:207C2000853041F08091E80082FFF7CF80E0089582E0089583E008959C016115710529F47C
:207C40008091E8008B778093E800F90126C08EB3882391F1853091F18091E80083FF02C06C
:207C600081E008958091E80082FFF1CF06C08091F10081936150704059F02091F300809191
:207C8000F200322F20E090E0822B932B892B79F78091E8008B778093E80061157105B9F601
:207CA00005C08EB3882341F0853041F08091E80080FFF7CF80E0089582E0089583E00895C2
:207CC0000F931F93DF93CF9300D0CDB7DEB7E6EBF1E08091F100819381E0EE3BF807C9F792
:207CE00024DD8091E80083FFE4C08091B6019091B701953009F46DC0963040F4913081F1A7
:207D0000913070F0933009F0D4C02AC0983009F4A3C0993009F4B2C0963009F0CAC07CC023
:207D2000803809F4C6C0823809F0C3C08091BA0187708093E9008091EB001092E9002091DB
:207D4000E800277F2093E80090E025E0969587952A95E1F781708093F1001092F10087C0D8
:207D6000882319F0823009F0A4C08F71823009F0A0C08091B801882331F52091BA01277097
:207D800009F497C02093E9008091EB0080FF1BC0933021F48091EB00806213C08091EB0018
:207DA00080618093EB0081E090E002C0880F991F2A95E2F78093EA001092EA008091EB00E5
:207DC00088608093EB001092E9008091E800877F51C0882309F06DC01091B8011F770FB79B
:207DE000F8948091E800877F8093E8009ADD8091E80080FFFCCF8091E3008078812B809398
:207E0000E30080688093E300112311F482E001C083E08EBB0FBF4DC08058823008F049C033
:207E20008091B8019091B9016091BA01AE014F5F5F4F36DDBC01009709F43BC08091E8008E
:207E4000877F8093E80089819A8192DE8091E8008B778093E8002DC0803859F58091E800AA
:207E6000877F8093E8008091B4018093F1008091E8008E778093E80054DD1BC08823C9F4CA
:207E80009091B8019230A8F48091E800877F8093E8009093B40145DD8091B401882331F420
:207EA0008091E30087FD02C081E001C084E08EBB6CDC8091E80083FF0AC08091EB0080624E
:207EC0008093EB008091E800877F8093E8000F900F90CF91DF911F910F91089508951F9360
:207EE0008EB3882361F01091E9001092E9008091E80083FF01C0E4DE17701093E9001F916F
:207F00000895F999FECF92BD81BDF89A992780B50895262FF999FECF1FBA92BD81BD20BDBD
:207F20000FB6F894FA9AF99A0FBE01960895F894FFCF4341544552494E4100777700080031
:207F40000000000000080112011001020000084123360001000201000109023E00020100FF
:207F600080320904000001020201000524001001042402040524060001070582030800FF0C
:207F800009040100020A000000070504021000010705830210000104030904220341007216
:207FA000006400750069006E006F0020004C0065006F006E006100720064006F0000001836
:1A7FC00003410072006400750069006E006F0020004C004C004300000000D7
:00000001FF
